S0190000667265655F72746F735F737265636F72642E73726563F1
S11300000000082079190008C9190008C919000856
S1130010C9190008C9190008C9190008000000001E
S11300200000000000000000000000009111000822
S1130030C919000800000000D113000825170008A2
S1130040C919000800000000C9190008C9190008EE
S1130050C9190008C919000809190008C9190008B4
S1130060C9190008C9190008C9190008C9190008E4
S1130070C9190008C9190008C9190008C9190008D4
S1130080C9190008C9190008C9190008C9190008C4
S1130090C9190008C9190008C9190008C9190008B4
S11300A0C919000800000000C91900080000000078
S11300B0C9190008C9190008C9190008C919000894
S11300C0C91900080000000000000000C919000858
S11300D0C9190008C9190008C9190008C919000874
S11300E0C9190008C9190008C9190008C919000864
S11300F0C9190008C9190008C9190008C919000854
S1130100C9190008C9190008C9190008C919000843
S113011000000000C9190008F5180008C9190008F2
S1130120C9190008C9190008C9190008C919000823
S1130130C91900080000000000000000C9190008E7
S1130140C9190008C9190008C9190008C919000803
S1130150C9190008C9190008C919000800000000DD
S11301600000000000000000C9190008C9190008B7
S1130170C9190008C9190008C919000800000000BD
S1130180C9190008C919000800000000C9190008AD
S1130190C9190008C9190008C9190008C9190008B3
S11301A0C919000800000000C91900080000000077
S11301B0000000000000000000000000000000003B
S11301C00000000000000000C91900080000000041
S11301D0000000000000000000000000C919000831
S11301E0C9190008C9190008C9190008C919000863
S11301F0C9190008C9190008000000000000000027
S113020010B5054C237833B9044B13B10448AFF34C
S113021000800123237010BD54040020000000005E
S11302203031000808B5034B1BB103490348AFF351
S1130230008008BD00000000580400203031000890
S113024053B94AB9002908BF00281CBF4FF0FF3139
S11302504FF0FF3000F072B9ADF1080C6DE904CE37
S113026000F006F8DDF804E0DDE9022304B070478D
S11302702DE9F047089E04468846002B4BD18A425C
S1130280154667D9B2FA82F24AB1C2F1200701FADF
S113029002F320FA07F7954047EA030894404FEA2F
S11302A0154E230CB8FBFEF71FFA85FC0EFB1788CE
S11302B043EA084307FB0CF1994209D9EB1807F10B
S11302C0FF3080F01B81994240F21881023F2B4499
S11302D05B1AA4B2B3FBFEF00EFB103344EA0344F2
S11302E000FB0CFCA44509D92C1900F1FF3380F064
S11302F00781A44540F2048102382C4440EA0740B7
S1130300A4EB0C0400271EB1D4400023C6E900432B
S11303103946BDE8F0878B4209D9002E00F0EB8006
S11303200027C6E9000138463946BDE8F087B3FA2C
S113033083F7002F47D18B4202D3824200F2FA8026
S1130340841A61EB030301209846002EE0D0C6E92D
S11303500048DDE702B9FFDEB2FA82F2002A40F07B
S11303608F80491B4FEA154E1FFA85F80127B1FB10
S1130370FEFC230C0EFB1C1143EA014308FB0CF1A9
S1130380994207D9EB180CF1FF3002D2994200F2DE
S1130390CD808446591AA3B2B1FBFEF00EFB1014B3
S11303A043EA044408FB00F8A04507D92C1900F1DE
S11303B0FF3302D2A04500F2B6801846A4EB08042D
S11303C040EA0C409FE7C7F1200CBB4022FA0CFE28
S11303D04EEA030E01FA07F420FA0CF521FA0CF3A5
S11303E04FEA1E482543B3FBF8F92C0C08FB1933DC
S11303F01FFA8EFA44EA034309FB0AF49C4202FA08
S113040007F200FA07F10BD91EEB030309F1FF30E1
S113041080F087809C4240F28480A9F102097344F1
S11304201B1BADB2B3FBF8F008FB103345EA0344E1
S113043000FB0AFAA24508D91EEB040400F1FF33BD
S11304406BD2A24569D90238744440EA0940A0FB42
S11304500289A4EB0A044C45C2464B4654D351D0FE
S1130460002E69D0B1EB0A0564EB030404FA0CFC1A
S1130470FD40FC404CEA0505C6E90054002747E767
S1130480C2F1200320FA03F7954001FA02F021FAA1
S113049003F34FEA154E3843010CB3FBFEF71FFA82
S11304A085F80EFB173341EA034107FB08F38B423F
S11304B004FA02F407D9691807F1FF3C2FD28B42E2
S11304C02DD9023F2944CB1A81B2B3FBFEF00EFBB7
S11304D0103341EA034100FB08F38B4207D9691842
S11304E000F1FF3C17D28B4215D902382944C91AAE
S11304F040EA07473BE73746304609E70746E7E661
S11305001846FBE64145ABD2B8EB020A69EB0E0292
S113051001381346A4E76046E9E7184695E76746BD
S1130520D1E781467CE702382C4447E7ACF1020C62
S11305302B442FE7384608E73746E9E6704700BF03
S113054080B485B000AF0346FB800023FB60B7F99D
S11305500630842B05D0B7F90620FB681344033317
S1130560FB60FB6818461437BD465DF8047B704792
S113057080B500AF00F06EFA0023184680BDF0B5D8
S113058087B002AF786039607B685C687B681D68FF
S11305907B681B699EB27B68B3F908301846FFF785
S11305A0CFFF024607F10C03019300923B683246E9
S11305B02946204600F0DDF80346012B01D0002334
S11305C000E0FB6818461437BD46F0BD80B584B022
S11305D000AF78607B68FB60FB68002B01D0FB6890
S11305E000E00123184600F001FA002318461037F2
S11305F0BD4680BD80B500AF00F0E2FC0346012B90
S113060001D000F019FF00BF80BD80B483B000AFFB
S113061078607B6803F108027B685A607B684FF05E
S1130620FF329A607B6803F108027B68DA607B68BA
S113063003F108027B681A617B6800221A6000BF1C
S11306400C37BD465DF8047B704780B483B000AFBF
S113065078607B6800221A6100BF0C37BD465DF8E4
S1130660047B704780B485B000AF786039607B68E4
S11306705B68FB603B68FA685A60FB689A683B6891
S11306809A60FB689B683A685A60FB683A689A60AB
S11306903B687A681A617B681B685A1C7B681A601D
S11306A000BF1437BD465DF8047B704780B485B045
S11306B000AF786039603B681B68BB60BB68B3F10E
S11306C0FF3F03D17B681B69FB600CE07B68083348
S11306D0FB6002E0FB685B68FB60FB685B681B68AF
S11306E0BA689A42F6D2FB685A683B685A603B681B
S11306F05B683A689A603B68FA689A60FB683A6893
S11307005A603B687A681A617B681B685A1C7B686C
S11307101A6000BF1437BD465DF8047B704780B48F
S113072085B000AF78607B681B69FB607B685B68A1
S11307307A6892689A607B689B687A6852685A60A3
S1130740FB685B687A689A4203D17B689A68FB68A5
S11307505A607B6800221A61FB681B685A1EFB689A
S11307601A60FB681B6818461437BD465DF8047BA5
S1130770704780B58CB004AFF860B9603B60134635
S1130780FB80FB889B00184600F0A4FE78617B691F
S1130790002B0ED05C2000F09DFEF861FB69002B5D
S11307A003D0FB697A691A6305E0786900F0D6FE24
S11307B001E00023FB61FB69002B13D0FA880023BE
S11307C00393FB690293FB6A0193BB6A00933B6842
S11307D0B968F86800F00EF8F86900F099F8012398
S11307E0BB6102E04FF0FF33BB61BB6918462037A1
S11307F0BD4680BD80B588B000AFF860B9607A604E
S11308003B603B6B186B7B689B001A46A52102F08A
S1130810B7FB3B6B1A6B79686FF040430B449B004A
S11308201344BB61BB6923F00703BB61BB6903F0DD
S11308300703002B09D04FF0500383F31188BFF353
S11308406F8FBFF34F8F7B61FEE7BB68002B1FD018
S11308500023FB6112E0BA68FB69134419783A6B10
S1130860FB69134434330A461A70BA68FB691344AB
S11308701B78002B06D0FB690133FB61FB690F2B4E
S1130880E9D900E000BF3B6B002283F8432003E07A
S11308903B6B002283F83420BB6A062B01D9062364
S11308A0BB623B6BBA6ADA623B6BBA6ADA643B6B73
S11308B000221A653B6B04331846FFF7C6FE3B6BF8
S11308C018331846FFF7C1FE3B6B3A6B1A61BB6ADB
S11308D0C3F107023B6B9A613B6B3A6B5A623B6B09
S11308E000225A653B6B002283F858203A68F96865
S11308F0B86900F0E9FB02463B6B1A60FB6A002B07
S113090002D0FB6A3A6B1A6000BF2037BD4680BD37
S113091080B582B000AF786000F000FD2C4B1B68FE
S113092001332B4A13602B4B1B68002B09D1294A36
S11309307B681360264B1B68012B10D100F0A4FACE
S11309400DE0254B1B68002B09D1224B1B68DA6A8A
S11309507B68DB6A9A4202D81E4A7B6813601F4B8D
S11309601B6801331D4A13601C4B1A687B685A6468
S11309707B68DB6A01229A40194B1B681343184AAF
S113098013607B68DA6A13469B0013449B00154A84
S11309901A447B68043319461046FFF763FE00F0DF
S11309A0EBFC0D4B1B68002B0ED00A4B1B68DA6A5C
S11309B07B68DB6A9A4207D20B4B4FF080521A6075
S11309C0BFF34F8FBFF36F8F00BF0837BD4680BDA5
S11309D070050020700400207C0500208C05002098
S11309E0780500207404002004ED00E080B584B094
S11309F000AF78600023FB607B68002B16D0134B9C
S1130A001B68002B09D04FF0500383F31188BFF308
S1130A106F8FBFF34F8FBB60FEE700F061F80021DA
S1130A20786800F0EBFA00F069F8F860FB68002BD6
S1130A3007D1074B4FF080521A60BFF34F8FBFF3BB
S1130A406F8F00BF1037BD4680BD00BF98050020E2
S1130A5004ED00E080B586B002AF1B4B0193002388
S1130A6000930023802219491948FFF782FEF86099
S1130A70FB68012B15D14FF0500383F31188BFF3AA
S1130A806F8FBFF34F8FBB60124B4FF0FF321A6072
S1130A90114B01221A60114B00221A6000F0A0FBD6
S1130AA00DE0FB68B3F1FF3F09D14FF0500383F32E
S1130AB01188BFF36F8FBFF34F8F7B60FEE700BFDA
S1130AC01037BD4680BD00BF9405002048310008A2
S1130AD0590E0008900500207C05002074050020B4
S1130AE080B400AF044B1B680133034A136000BF9A
S1130AF0BD465DF8047B70479805002080B584B03E
S1130B0000AF0023FB600023BB60414B1B68002B3C
S1130B1009D14FF0500383F31188BFF36F8FBFF3F4
S1130B204F8F3B60FEE700F0F9FB394B1B68013B3C
S1130B30374A1360364B1B68002B61D1354B1B6859
S1130B40002B5DD02EE0344BDB68DB68FB60FB6878
S1130B5018331846FFF7E3FDFB6804331846FFF724
S1130B60DEFDFB68DB6A01229A402C4B1B681343B1
S1130B702A4A1360FB68DA6A13469B0013449B00FD
S1130B80274A1A44FB68043319461046FFF76AFDE6
S1130B90FB68DA6A234B1B68DB6A9A4202D3224B56
S1130BA001221A601C4B1B68002BCCD1FB68002B64
S1130BB001D000F0E5F91D4B1B687B607B68002BBE
S1130BC010D000F037F80346002B02D0164B012258
S1130BD01A607B68013B7B607B68002BF1D1134B6F
S1130BE000221A60104B1B68002B09D00123BB6044
S1130BF00F4B4FF080521A60BFF34F8FBFF36F8FCC
S1130C0000F0BAFBBB6818461037BD4680BD00BF74
S1130C10980500207005002030050020780500208C
S1130C207404002070040020840500208005002046
S1130C3004ED00E080B586B000AF00237B614E4B2D
S1130C401B68002B40F087804C4B1B6801333B61D1
S1130C504A4A3B6913603B69002B1FD1484B1B6810
S1130C601B68002B09D04FF0500383F31188BFF3A6
S1130C706F8FBFF34F8F3B60FEE7414B1B68FB60F8
S1130C80404B1B683E4A13603E4AFB6813603E4B70
S1130C901B6801333C4A136000F072F93B4B1B683C
S1130CA03A699A4248D3364B1B681B68002B04D11F
S1130CB0364B4FF0FF321A603EE0314B1B68DB6865
S1130CC0DB68BB60BB685B687B603A697B689A429F
S1130CD003D22E4A7B6813602EE0BB6804331846A7
S1130CE0FFF71DFDBB689B6A002B04D0BB6818335B
S1130CF01846FFF714FDBB68DB6A01229A40244BB7
S1130D001B681343224A1360BB68DA6A13469B00CC
S1130D1013449B001F4A1A44BB6804331946104607
S1130D20FFF7A0FCBB68DA6A1B4B1B68DB6A9A42BC
S1130D30B9D301237B61B6E7174B1B68DA6A1549FF
S1130D4013469B0013449B000B441B68012B07D9DB
S1130D5001237B6104E0114B1B6801330F4A1360CC
S1130D600F4B1B68002B01D001237B617B69184664
S1130D701837BD4680BD00BF9805002074050020CB
S1130D80280500202C05002088050020900500205F
S1130D9078050020740400207004002080050020E1
S1130DA08405002080B487B000AF264B1B68002B5D
S1130DB003D0254B01221A603EE0234B00221A6027
S1130DC0224B1B68FB60FB68B3FA83F3FB72FB7A6C
S1130DD0C3F11F037B611E497A6913469B001344C8
S1130DE09B000B441B68002B09D14FF0500383F385
S1130DF01188BFF36F8FBFF34F8F7B60FEE77A6973
S1130E0013469B0013449B00114A13443B613B6906
S1130E105B685A683B695A603B695A683B690833A6
S1130E209A4204D13B695B685A683B695A603B69E2
S1130E305B68DB68074A136000BF1C37BD465DF87A
S1130E40047B704798050020840500207805002065
S1130E50740400207004002080B582B000AF786074
S1130E6000F052F8064B1B68012BF9D9054B4FF0E3
S1130E7080521A60BFF34F8FBFF36F8FF0E700BF4C
S1130E807404002004ED00E080B582B000AF0023BC
S1130E907B600CE07A6813469B0013449B00124A63
S1130EA013441846FFF7B1FB7B6801337B607B6812
S1130EB0062BEFD90D48FFF7A8FB0D48FFF7A5FB5C
S1130EC00C48FFF7A2FB0C48FFF79FFB0B48FFF70A
S1130ED09CFB0B4B054A1A600A4B054A1A6000BF7B
S1130EE00837BD4680BD00BF740400200005002003
S1130EF01405002030050020440500205C05002076
S1130F00280500202C05002080B582B000AF19E030
S1130F1000F004FA0F4BDB68DB687B607B6804330A
S1130F201846FFF7FCFB0C4B1B68013B0A4A136095
S1130F300A4B1B68013B094A136000F01DFA7868EC
S1130F4000F00EF8054B1B68002BE1D100BF0837F9
S1130F50BD4680BD440500207005002058050020D2
S1130F6080B582B000AF78607B681B6B184600F0D8
S1130F70F5FA786800F0F2FA00BF0837BD4680BD84
S1130F8080B483B000AF0C4B1B681B68002B04D1EA
S1130F900A4B4FF0FF321A6008E0074B1B68DB680E
S1130FA0DB687B607B685B68044A136000BF0C37B6
S1130FB0BD465DF8047B704728050020900500209D
S1130FC080B483B000AF0B4B1B68002B02D101230C
S1130FD07B6008E0084B1B68002B02D102237B6076
S1130FE001E000237B607B6818460C37BD465DF842
S1130FF0047B70477C0500209805002080B584B0F0
S113100000AF78603960294B1B68FB60284B1B6874
S113101004331846FFF783FB0346002B0BD1244B04
S11310201B68DB6A012202FA03F3DA43214B1B68D3
S11310301340204A13607B68B3F1FF3F0AD13B6839
S1131040002B07D01A4B1B68043319461A48FFF7C4
S113105009FB26E0FA687B681344BB60144B1B68E9
S1131060BA685A60BA68FB689A4209D2134B1A6884
S11310700F4B1B68043319461046FFF717FB10E0AB
S11310800F4B1A680A4B1B68043319461046FFF7C6
S11310900DFB0C4B1B68BA689A4202D2094ABB6822
S11310A0136000BF1037BD4680BD00BF740500202B
S11310B070040020780500205C0500202C05002029
S11310C0280500209005002080B485B000AFF860AA
S11310D0B9607A60FB68043BFB60FB684FF0807288
S11310E01A60FB68043BFB60BB6823F00102FB68E9
S11310F01A60FB68043BFB600C4AFB681A60FB68DF
S1131100143BFB607A68FB681A60FB68043BFB6075
S1131110FB686FF002021A60FB68203BFB60FB680F
S113112018461437BD465DF8047B7047311100083A
S113113080B485B000AF00237B60114B1B68B3F112
S1131140FF3F09D04FF0500383F31188BFF36F8F33
S1131150BFF34F8FFB60FEE74FF0500383F311881A
S1131160BFF36F8FBFF34F8FBB6000BF7B68002B53
S1131170FCD000BF1437BD465DF8047B704700BF48
S1131180000000200000000000000000000000003B
S1131190074B19680868B0E8F04F80F30988BFF37B
S11311A06F8F4FF0000080F311887047AFF3008019
S11311B07004002000BF00BF08480068006880F386
S11311C008884FF0000080F3148862B661B6BFF35C
S11311D04F8FBFF36F8F00DF00BF00BF08ED00E04B
S11311E080B586B000AF444B1B68444A934209D192
S11311F04FF0500383F31188BFF36F8FBFF34F8F0A
S11312003B61FEE73C4B1B683D4A934209D14FF0DA
S1131210500383F31188BFF36F8FBFF34F8FFB60CD
S1131220FEE7384B7B617B691B78DBB27B607B69B3
S1131230FF221A707B691B78DBB2FB70FB78DBB290
S113124003F05003DAB2304B1A70304B07221A60A5
S113125009E02E4B1B68013B2C4A1360FB78DBB280
S11312605B00DBB2FB70FB78DBB203F08003802B06
S1131270EFD0264B1B68C3F10703042B09D04FF0B2
S1131280500383F31188BFF36F8FBFF34F8FBB609D
S1131290FEE71E4B1B681B021C4A13601B4B1B689A
S11312A003F4E063194A13607B68DAB27B691A704D
S11312B0174B1B68164A43F470031360144B1B68E6
S11312C0134A43F07043136000F0D6F8114B002228
S11312D01A6000F0F5F8104B1B680F4A43F04043C6
S11312E01360FFF769FFFFF75DFDFFF721FF0023A0
S11312F018461837BD4680BD00ED00E071C20F41AD
S113130070C20F4100E400E09C050020A00500200D
S113131020ED00E00000002034EF00E080B483B052
S113132000AF4FF0500383F31188BFF36F8FBFF307
S11313304F8F7B600E4B1B6801330D4A13600C4BBF
S11313401B68012B0ED10B4B1B68DBB2002B09D0A1
S11313504FF0500383F31188BFF36F8FBFF34F8FA8
S11313603B60FEE700BF0C37BD465DF8047B704769
S11313700000002004ED00E080B483B000AF114B06
S11313801B68002B09D14FF0500383F31188BFF37E
S11313906F8FBFF34F8F7B60FEE70A4B1B68013BE7
S11313A0084A1360074B1B68002B04D100233B60E1
S11313B03B6883F3118800BF0C37BD465DF8047B9E
S11313C0704700BF00000020000000000000000083
S11313D0EFF30980BFF36F8F154B1A681EF0100FDF
S11313E008BF20ED108A20E9F04F10602DE90900B4
S11313F04FF0500080F31188BFF34F8FBFF36F8F0E
S1131400FFF7D0FC4FF0000080F3118809BC196885
S11314100868B0E8F04F1EF0100F08BFB0EC108A57
S113142080F30988BFF36F8F704700BFAFF300806C
S11314307004002000BF00BF80B582B000AF4FF041
S1131440500383F31188BFF36F8FBFF34F8F7B601B
S1131450FFF7F0FB0346002B03D0064B4FF08052FE
S11314601A6000233B603B6883F3118800BF083790
S1131470BD4680BD04ED00E080B400AF0B4B0022FC
S11314801A600B4B00221A600A4B1B680A4AA2FB23
S113149003239B09094A013B1360044B07221A608A
S11314A000BFBD465DF8047B704700BF10E000E05C
S11314B018E000E018000020D34D621014E000E0B2
S11314C0DFF80C00016841F470010160704700BF4F
S11314D088ED00E080B584B000AF78600023FB6045
S11314E07B6803F00703002B04D07B6823F0070319
S11314F008337B60FFF7F4FA154B1B68002B05D10A
S1131500144B23F007031A46114B1A60124B1A6846
S11315107B681344B3F5FF6F13D20F4B1A687B68D3
S11315201A440D4B1B689A420BD9094B1A680A4B93
S11315301B681344FB60084B1A687B681344064A13
S11315401360FFF7DBFAFB6818461037BD4680BD11
S1131550A80D0020AC050020A40D002080B485B0A7
S113156000AF78607B68002B09D04FF0500383F301
S11315701188BFF36F8FBFF34F8FFB60FEE700BF8F
S11315801437BD465DF8047B7047000080B596B003
S113159000AF002387F85730304B1B6C2F4A43F0C1
S11315A0805313642D4B1B6C03F08053BB60BB68EA
S11315B02B4B1B682A4A43F440431360284B1B6897
S11315C003F440437B607B680123FB604FF480336A
S11315D03B6102237B624FF48003BB621923FB62ED
S11315E04FF4D8733B6302237B630923BB63072354
S11315F0FB6307F10C03184600F09AFD034687F8D5
S1131600573097F85730002B00D0FEE700F040FD2C
S1131610034687F8573097F85730002B00D0FEE781
S11316200F233B6402237B640023BB644FF4A05369
S1131630FB644FF480533B6507F1400307211846D0
S113164001F024F8034687F8573097F85730002BF9
S113165000D0FEE700BF5837BD4680BD00380240C9
S11316600070004080B400AFBFF34F8FBFF36F8FA3
S11316700B4B0022C3F85022BFF34F8FBFF36F8F81
S1131680074B5B69064A43F400335361BFF34F8F42
S1131690BFF36F8F00BFBD465DF8047B704700BF8A
S11316A000ED00E080B485B000AF1D4B0022C3F80C
S11316B08420BFF34F8F1A4BD3F880307B607B6854
S11316C05B0BC3F30E03FB607B68DB08C3F3090306
S11316D0BB60FB685A0143F6E0731340BA68920793
S11316E00F491343C1F86032BB685A1EBA60002B1D
S11316F0EFD1FB685A1EFA60002BE5D1BFF34F8F80
S1131700074B5B69064A43F480335361BFF34F8F41
S1131710BFF36F8F00BF1437BD465DF8047B70477D
S113172000ED00E080B500AFFEF764FF00BF80BDB0
S113173080B582B000AF7860002000F077F9C8204F
S1131740FEF744FFF8E780B582B000AF786001206F
S113175000F06CF94FF4FA70FEF738FFF7E7000079
S1131760B0B58EB000AFFFF79DFFFFF77BFF00F031
S11317708DF9264B1B6B254A43F001031363234B5E
S11317801B6B03F00103FB60FB68204B1B6B1F4AC0
S113179043F0020313631D4B1B6B03F00203BB6096
S11317A0BB681A4B1B6B194A43F004031363174BB2
S11317B01B6B03F004037B607B68FFF7E7FE00F01C
S11317C0B9F8002000F002F9012000F0FFF8104BF6
S11317D007F124041D460FCD0FC42B6823600D4B65
S11317E007F110041D460FCD0FC42B68236007F1C9
S11317F0240300211846FEF7C2FE07F1100300215E
S11318001846FEF7BCFEFEF7B3FEFEE700380240C2
S11318105C3100087831000880B58CB000AF786086
S11318200023BB6200237B6200227968362000F02B
S113183029FA362000F042FA254B1B6C244A43F067
S113184010031364224B1B6C03F01003BB60BB68D2
S113185007F10C0207F110031146184601F0D4F801
S1131860FB69BB62BB6A002B03D101F0B9F8F862D3
S113187004E001F0B5F803465B00FB62FB6A154A1D
S1131880A2FB03239B0C013B7B62134B134A1A609C
S1131890114B40F2E732DA600F4A7B6A53600E4B19
S11318A000221A610C4B00229A600B4B00229A61B1
S11318B0094801F0DBF80346002B04D1064801F087
S11318C00BF9034600E0012318463037BD4680BDBE
S11318D00038024083DE1B43AC0D002000100040A2
S11318E080B582B000AF786000F0F4F800BF08372C
S11318F0BD4680BD80B500AF024801F017F900BFB6
S113190080BD00BFAC0D002080B500AF012000F009
S1131910A7FB00BF80BD80B582B000AF0346FB804B
S1131920FB88012B02D1012000F080F800BF0837AA
S1131930BD4680BD80B586B000AF012000F046F8FA
S11319400B4BBB600023FB6001237B603B1D1946EE
S1131950084800F0C1F900220221062000F092F9A3
S1131960062000F0ABF900BF1837BD4680BD00BFAC
S113197000001110000002400D4885460D480E4934
S11319800E4A002302E0D458C4500433C4188C42D5
S1131990F9D30B4A0B4C002301E013600432A2423A
S11319A0FBD300F05DF801F0C7FAFFF7D9FEFEE7BC
S11319B0000008200000002054040020BC3100086E
S11319C054040020140E0020FEE7000080B588B007
S11319D000AF0346FB71124B1B6B114A43F40073B7
S11319E013630F4B1B6B03F40073BB60BB68FB7981
S11319F00C4A52F82330FB6001233B6101237B61D5
S1131A000323BB61FB79084A52F8233007F10C0227
S1131A101146184600F060F900BF2037BD4680BD6E
S1131A2000380240040000200C00002080B582B081
S1131A3000AF0346FB71FB79074A52F82300FB7998
S1131A40064A52F823309BB2194600F0EFFA00BF61
S1131A500837BD4680BD00BF0C00002004000020F4
S1131A6080B400AF084BD3F88830074A43F47003BE
S1131A70C2F88830044B4FF000629A6000BFBD4644
S1131A805DF8047B704700BF00ED00E080B500AF57
S1131A900B4B1B680A4A43F400731360084B1B6822
S1131AA0074A43F480731360032000F0E0F80F202A
S1131AB0FFF7B2FE00F006F80023184680BD00BF11
S1131AC0003C024080B400AF00BFBD465DF8047B1B
S1131AD07047000080B400AF064B1B781A46064BD3
S1131AE01B681344044A136000BFBD465DF8047BC1
S1131AF0704700BF20000020EC0D002080B400AF30
S1131B00034B1B681846BD465DF8047B704700BF55
S1131B10EC0D002080B485B000AF78607B6803F0E2
S1131B200703FB600B4BDB68BB60BA684FF6FF032F
S1131B301340BB60FB681A02BB681A43064B13438D
S1131B40BB60044ABB68D36000BF1437BD465DF870
S1131B50047B704700ED00E00000FA0580B400AF9C
S1131B60044BDB681B0A03F007031846BD465DF807
S1131B70047B704700ED00E080B483B000AF0346FF
S1131B80FB7197F90730002B0BDBFB7903F01F0285
S1131B90074997F907305B09012000FA02F241F87E
S1131BA0232000BF0C37BD465DF8047B704700BF9F
S1131BB000E100E080B483B000AF03463960FB71FC
S1131BC097F90730002B0ADB3B68DAB20C4997F926
S1131BD007301201D2B20B4483F800230AE03B68B9
S1131BE0DAB20849FB7903F00F03043B1201D2B2C5
S1131BF00B441A7600BF0C37BD465DF8047B704772
S1131C0000E100E000ED00E080B489B000AFF860CE
S1131C10B9607A60FB6803F00703FB61FB69C3F1F9
S1131C200703042B28BF0423BB61FB690433062B81
S1131C3002D9FB69033B00E000237B614FF0FF32D4
S1131C40BB6902FA03F3DA43BB681A407B699A4022
S1131C504FF0FF317B6901FA03F3D9437B680B40F2
S1131C60134318462437BD465DF8047B704780B59E
S1131C7082B000AF78607868FFF74CFF00BF083788
S1131C80BD4680BD80B586B000AF0346B9607A60BA
S1131C90FB7300237B61FFF761FF78617A68B968A1
S1131CA07869FFF7B1FF024697F90F3011461846DD
S1131CB0FFF780FF00BF1837BD4680BD80B582B0F6
S1131CC000AF0346FB7197F907301846FFF754FF3E
S1131CD000BF0837BD4680BD80B489B000AF7860CE
S1131CE039600023FB6100237B6100233B610023F7
S1131CF0BB610023FB6175E10122FB6902FA03F376
S1131D007B613B681B687A6913403B613A697B6974
S1131D109A4240F064813B685B68012B0BD03B68BE
S1131D205B68022B07D03B685B68112B03D03B68D0
S1131D305B68122B30D17B689B68BB61FB695B00DD
S1131D40032202FA03F3DB43BA691340BB613B6825
S1131D50DA68FB695B0002FA03F3BA691343BB61F7
S1131D607B68BA699A607B685B68BB610122FB6926
S1131D7002FA03F3DB43BA691340BB613B685B6857
S1131D801B0903F00102FB6902FA03F3BA69134366
S1131D90BB617B68BA695A607B68DB68BB61FB69BD
S1131DA05B00032202FA03F3DB43BA691340BB610D
S1131DB03B689A68FB695B0002FA03F3BA69134350
S1131DC0BB617B68BA69DA603B685B68022B03D04D
S1131DD03B685B68122B23D1FB69DA087B68083205
S1131DE053F82230BB61FB6903F007039B000F2209
S1131DF002FA03F3DB43BA691340BB613B681A6917
S1131E00FB6903F007039B0002FA03F3BA69134367
S1131E10BB61FB69DA087B680832B96943F82210B0
S1131E207B681B68BB61FB695B00032202FA03F356
S1131E30DB43BA691340BB613B685B6803F0030290
S1131E40FB695B0002FA03F3BA691343BB617B6865
S1131E50BA691A603B685B6803F08053002B00F09A
S1131E60BE80654B5B6C644A43F480435364624BAD
S1131E705B6C03F48043FB60FB68604AFB699B086E
S1131E80023352F82330BB61FB6903F003039B0068
S1131E900F2202FA03F3DB43BA691340BB617B6888
S1131EA0574A934237D07B68564A934231D07B6875
S1131EB0554A93422BD07B68544A934225D07B6881
S1131EC0534A93421FD07B68524A934219D07B688D
S1131ED0514A934213D07B68504A93420DD07B6899
S1131EE04F4A934207D07B684E4A934201D109235B
S1131EF012E00A2310E008230EE007230CE0062377
S1131F000AE0052308E0042306E0032304E0022397
S1131F1002E0012300E00023FA6902F003029200C8
S1131F209340BA691343BB613449FB699B0802338C
S1131F30BA6941F823203C4B1B68BB613B69DB4316
S1131F40BA691340BB613B685B6803F48033002BC0
S1131F5003D0BA693B691343BB61334ABB6913605D
S1131F60314B5B68BB613B69DB43BA691340BB61BE
S1131F703B685B6803F40033002B03D0BA693B6908
S1131F801343BB61284ABB695360274B9B68BB6101
S1131F903B69DB43BA691340BB613B685B6803F48C
S1131FA08013002B03D0BA693B691343BB611E4AFB
S1131FB0BB6993601C4BDB68BB613B69DB43BA695B
S1131FC01340BB613B685B6803F40013002B03D030
S1131FD0BA693B691343BB61134ABB69D360FB69AC
S1131FE00133FB61FB690F2B7FF686AE00BF2437FC
S1131FF0BD465DF8047B704700380240003801405C
S1132000000002400004024000080240000C0240AC
S1132010001002400014024000180240001C02405C
S11320200020024000240240003C014080B483B000
S113203000AF78600B467B807B685A697B881340CD
S1132040002B04D07B881A047B689A6102E07A88AA
S11320507B689A6100BF0C37BD465DF8047B70470E
S113206080B582B000AF0346FB80084B5A69FB88F9
S11320701340002B06D0054AFB885361FB881846A1
S1132080FFF749FC00BF0837BD4680BD003C014056
S113209080B582B000AF00237B60234B1B6C224AC7
S11320A043F080531364204B1B6C03F080533B605C
S11320B03B681E4B1B681D4A43F480331360FFF7D3
S11320C01DFD786009E0FFF719FD02467B68D31A0D
S11320D0B3F57A7F01D9032322E0144B5B6803F440
S11320E08033B3F5803FEED1104B1B680F4A43F4A5
S11320F000331360FFF702FD786009E0FFF7FEFC90
S113210002467B68D31AB3F57A7F01D9032307E02B
S1132110064B5B6803F40033B3F5003FEED10023B4
S113212018460837BD4680BD0038024000700040A4
S113213080B586B000AF78600023FB757B68002B08
S113214001D101239BE27B681B6803F00103002B90
S113215000F08780964B9B6803F00C03042B0CD093
S1132160934B9B6803F00C03082B12D1904B5B68D4
S113217003F48003B3F5800F0BD18D4B1B6803F47C
S11321800033002B6CD07B685B68002B68D1012383
S113219075E27B685B68B3F5803F06D1844B1B68AE
S11321A0834A43F4803313602EE07B685B68002B22
S11321B00CD17F4B1B687E4A23F4803313607C4B25
S11321C01B687B4A23F4802313601DE07B685B68F3
S11321D0B3F5A02F0CD1764B1B68754A43F48023CA
S11321E01360734B1B68724A43F4803313600BE033
S11321F06F4B1B686E4A23F4803313606C4B1B686F
S11322006B4A23F4802313607B685B68002B13D034
S1132210FFF774FC386108E0FFF770FC02463B6985
S1132220D31A642B01D9032329E2614B1B6803F4FD
S11322300033002BF0D014E0FFF760FC386108E0B5
S1132240FFF75CFC02463B69D31A642B01D90323D4
S113225015E2574B1B6803F40033002BF0D100E068
S113226000BF7B681B6803F00203002B69D0504B4E
S11322709B6803F00C03002B0BD04D4B9B6803F0C1
S11322800C03082B1CD14A4B5B6803F48003002B1E
S113229016D1474B1B6803F00203002B05D07B6863
S11322A0DB68012B01D00123E9E1414B1B6823F0DA
S11322B0F8027B681B69DB003D4913430B6040E077
S11322C07B68DB68002B23D0394B1B68384A43F00A
S11322D001031360FFF712FC386108E0FFF70EFCFE
S11322E002463B69D31A022B01D90323C7E1304BC1
S11322F01B6803F00203002BF0D02D4B1B6823F066
S1132300F8027B681B69DB00294913430B6018E062
S1132310274B1B68264A23F001031360FFF7EEFBEB
S1132320386108E0FFF7EAFB02463B69D31A022B47
S113233001D90323A3E11E4B1B6803F00203002B06
S1132340F0D17B681B6803F00803002B38D07B684E
S11323505B69002B19D0164B5B6F154A43F00103E0
S11323605367FFF7CBFB386108E0FFF7C7FB024672
S11323703B69D31A022B01D9032380E10C4B5B6F19
S113238003F00203002BF0D01AE0094B5B6F084AFC
S113239023F001035367FFF7B1FB38610AE0FFF74D
S11323A0ADFB02463B69D31A022B03D9032366E132
S11323B000380240924B5B6F03F00203002BEED116
S11323C07B681B6803F00403002B00F0A4808C4B93
S11323D01B6C03F08053002B0DD1894B1B6C884A76
S11323E043F080531364864B1B6C03F08053BB6033
S11323F0BB680123FB75834B1B6803F48073002BBC
S113240018D1804B1B687F4A43F480731360FFF735
S113241075FB386108E0FFF771FB02463B69D31A8C
S1132420642B01D903232AE1764B1B6803F48073E0
S1132430002BF0D07B689B68012B06D1704B1B6F7F
S11324406F4A43F0010313672DE07B689B68002B00
S11324500CD16B4B1B6F6A4A23F001031367684B63
S11324601B6F674A23F0040313671CE07B689B68B7
S1132470052B0CD1624B1B6F614A43F004031367B5
S11324805F4B1B6F5E4A43F0010313670BE05C4B29
S11324901B6F5B4A23F001031367594B1B6F584AA8
S11324A023F0040313677B689B68002B15D0FFF7A8
S11324B025FB38610AE0FFF721FB02463B69D31A8A
S11324C041F28832934201D90323D8E04C4B1B6F6D
S11324D003F00203002BEED014E0FFF70FFB38618A
S11324E00AE0FFF70BFB02463B69D31A41F288323C
S11324F0934201D90323C2E0414B1B6F03F0020353
S1132500002BEED1FB7D012B05D13D4B1B6C3C4ACE
S113251023F0805313647B689B69002B00F0AE802A
S1132520374B9B6803F00C03082B6DD07B689B69C9
S1132530022B4BD1324B1B68314A23F0807313605A
S1132540FFF7DCFA386108E0FFF7D8FA02463B6986
S1132550D31A022B01D9032391E0294B1B6803F002
S11325600073002BF0D17B68DA697B681B6A1A431D
S11325707B685B6A9B011A437B689B6A5B08013B2F
S11325801B041A437B68DB6A1B061A437B681B6BBC
S11325901B071B4913434B60194B1B68184A43F034
S11325A080731360FFF7AAFA386108E0FFF7A6FA10
S11325B002463B69D31A022B01D903235FE0104B77
S11325C01B6803F00073002BF0D057E00C4B1B6822
S11325D00B4A23F080731360FFF790FA386108E028
S11325E0FFF78CFA02463B69D31A022B01D9032365
S11325F045E0034B1B6803F00073002BF0D13DE072
S113260000380240007000401F4B5B68FB607B6831
S11326109B69012B30D0FB6803F480027B68DB6983
S11326209A4229D1FB6803F03F027B681B6A9A42F5
S113263022D1FA6847F6C07313407A68526A92014D
S1132640934219D1FB6803F440327B689B6A5B08B0
S1132650013B1B049A420FD1FB6803F070627B6854
S1132660DB6A1B069A4207D1FB6803F0E0427B68F1
S11326701B6B1B079A4201D0012300E0002318467C
S11326801837BD4680BD00BF0038024080B584B015
S113269000AF786039600023FB607B68002B01D1B8
S11326A00123D0E06A4B1B6803F00F033A689A4297
S11326B010D9674B1B6823F00F0265493B6813432D
S11326C00B60634B1B6803F00F033A689A4201D016
S11326D00123B8E07B681B6803F00203002B20D0C1
S11326E07B681B6803F00403002B05D0594B9B68DF
S11326F0584A43F4E05393607B681B6803F0080373
S1132700002B05D0534B9B68524A43F460439360BB
S1132710504B9B6823F0F0027B689B684D49134340
S11327208B607B681B6803F00103002B40D07B683F
S11327305B68012B07D1474B1B6803F40033002B64
S113274015D101237FE07B685B68022B07D1414BE5
S11327501B6803F00073002B09D1012373E03D4B88
S11327601B6803F00203002B01D101236BE0394BFA
S11327709B6823F003027B685B68364913438B60D4
S1132780FFF7BCF9F8600AE0FFF7B8F90246FB6806
S1132790D31A41F28832934201D9032353E02D4BDB
S11327A09B6803F00C027B685B689B009A42EBD148
S11327B0274B1B6803F00F033A689A4210D2244B4C
S11327C01B6823F00F0222493B6813430B60204B24
S11327D01B6803F00F033A689A4201D0012332E0E8
S11327E07B681B6803F00403002B08D0194B9B681B
S11327F023F4E0527B68DB68164913438B607B68E3
S11328001B6803F00803002B09D0124B9B6823F4C8
S113281060427B681B69DB000E4913438B6000F048
S113282021F801460B4B9B681B0903F00F030A4A6E
S1132830D35C21FA03F3094A1360094B1B68184659
S1132840FEF7EAFF002318461037BD4680BD00BFDF
S1132850003C0240003802408C310008180000207F
S11328601C000020F0B585B000AF00237B6000237E
S1132870FB6000233B600023BB60504B9B6803F06C
S11328800C03042B07D0082B08D0002B40F08D80BC
S11328904B4BBB608CE04B4BBB6089E0474B5B68A8
S11328A003F03F037B60454B5B6803F48003002B1C
S11328B023D0424B5B689B094FF0000440F2FF11A8
S11328C04FF0000203EA010504EA02063D4A02FB56
S11328D006F1002202FB05F20A443A49A5FB010174
S11328E0531819467B684FF000041A462346FDF737
S11328F0A7FC03460C46FB6049E0304B5B689B0930
S11329004FF0000440F2FF114FF0000203EA01050A
S113291004EA0206294632464FF000034FF0000451
S1132920540144EAD1644B0119462246491B62EB27
S113293006024FF000034FF00004940144EA91644E
S11329408B015B1A64EB02044FF000014FF00002AC
S1132950E20042EA5372D9000B4614465B1944EB79
S113296006044FF000014FF00002A20242EA935223
S113297099020B461446184621467B684FF0000422
S11329801A462346FDF75CFC03460C46FB600B4BE2
S11329905B681B0C03F0030301335B003B60FA68C4
S11329A03B68B2FBF3F3BB6002E0054BBB6000BFC6
S11329B0BB6818461437BD46F0BD00BF003802405E
S11329C00024F40040787D0180B400AF034B1B6801
S11329D01846BD465DF8047B704700BF1800002010
S11329E080B500AFFFF7F0FF0146054B9B689B0ADB
S11329F003F00703034AD35C21FA03F3184680BDAE
S1132A00003802409C31000880B483B000AF786085
S1132A1039607B680F221A60124B9B6803F0030233
S1132A207B685A600F4B9B6803F0F0027B689A60E6
S1132A300C4B9B6803F4E0527B68DA60094B9B689B
S1132A40DB0803F4E0527B681A61074B1B6803F050
S1132A500F023B681A6000BF0C37BD465DF8047B6B
S1132A60704700BF00380240003C024080B582B08D
S1132A7000AF78607B68002B01D101231DE07B68E7
S1132A8093F83D30DBB2002B06D17B68002283F83B
S1132A903C20786800F015F87B68022283F83D201A
S1132AA07B681A687B6804331946104600F086F97F
S1132AB07B68012283F83D20002318460837BD4671
S1132AC080BD80B483B000AF786000BF0C37BD46D2
S1132AD05DF8047B7047000080B485B000AF786077
S1132AE07B681B68DA687B681B6842F00102DA6065
S1132AF07B681B689A680C4B1340FB60FB68062BD1
S1132B000BD0FB68B3F5803F07D07B681B681A685D
S1132B107B681B6842F001021A60002318461437D0
S1132B20BD465DF8047B70470700010080B582B0A4
S1132B3000AF78607B681B681B6903F00203022BFB
S1132B4022D17B681B68DB6803F00203022B1BD1D4
S1132B507B681B686FF002021A617B6801221A7796
S1132B607B681B689B6903F00303002B03D0786820
S1132B7000F005F905E0786800F0F7F8786800F0EF
S1132B8008F97B6800221A777B681B681B6903F0CD
S1132B900403042B22D17B681B68DB6803F0040365
S1132BA0042B1BD17B681B686FF004021A617B68DD
S1132BB002221A777B681B689B6903F44073002B1D
S1132BC003D0786800F0DBF805E0786800F0CDF811
S1132BD0786800F0DEF87B6800221A777B681B684F
S1132BE01B6903F00803082B22D17B681B68DB6890
S1132BF003F00803082B1BD17B681B686FF00802E5
S1132C001A617B6804221A777B681B68DB6903F00E
S1132C100303002B03D0786800F0B1F805E078686E
S1132C2000F0A3F8786800F0B4F87B6800221A7703
S1132C307B681B681B6903F01003102B22D17B688F
S1132C401B68DB6803F01003102B1BD17B681B6827
S1132C506FF010021A617B6808221A777B681B6880
S1132C60DB6903F44073002B03D0786800F087F825
S1132C7005E0786800F079F8786800F08AF87B68F5
S1132C8000221A777B681B681B6903F00103012B80
S1132C900ED17B681B68DB6803F00103012B07D1AD
S1132CA07B681B686FF001021A617868FEF718FEF2
S1132CB07B681B681B6903F08003802B0ED17B6843
S1132CC01B68DB6803F08003802B07D17B681B68DB
S1132CD06FF080021A61786800F01AF97B681B684B
S1132CE01B6903F48073B3F5807F0ED17B681B6886
S1132CF0DB6803F08003802B07D17B681B686FF4CB
S1132D0080721A61786800F00DF97B681B681B6992
S1132D1003F04003402B0ED17B681B68DB6803F093
S1132D204003402B07D17B681B686FF040021A6197
S1132D30786800F038F87B681B681B6903F020038F
S1132D40202B0ED17B681B68DB6803F02003202B4B
S1132D5007D17B681B686FF020021A61786800F065
S1132D60CDF800BF0837BD4680BD80B483B000AF46
S1132D70786000BF0C37BD465DF8047B704780B4B3
S1132D8083B000AF786000BF0C37BD465DF8047BAC
S1132D90704780B483B000AF786000BF0C37BD4685
S1132DA05DF8047B704780B483B000AF786000BFE7
S1132DB00C37BD465DF8047B7047000080B485B0D5
S1132DC000AF786039607B681B68FB607B68404AB1
S1132DD0934213D07B68B3F1804F0FD07B683D4A98
S1132DE093420BD07B683C4A934207D07B683B4AB2
S1132DF0934203D07B683A4A934208D1FB6823F09C
S1132E007003FB603B685B68FA681343FB607B6894
S1132E102F4A93422BD07B68B3F1804F27D07B6835
S1132E202C4A934223D07B682B4A93421FD07B6861
S1132E302A4A93421BD07B68294A934217D07B6865
S1132E40284A934213D07B68274A93420FD07B6869
S1132E50264A93420BD07B68254A934207D07B686D
S1132E60244A934203D07B68234A934208D1FB68E7
S1132E7023F44073FB603B68DB68FA681343FB6030
S1132E80FB6823F080023B685B691343FB607B684B
S1132E90FA681A603B689A687B68DA623B681A6869
S1132EA07B689A627B680A4A934203D07B680C4A27
S1132EB0934203D13B681A697B681A637B680122D9
S1132EC05A6100BF1437BD465DF8047B704700BFEC
S1132ED0000001400004004000080040000C0040D5
S1132EE0000401400040014000440140004801400A
S1132EF000180040001C00400020004080B483B053
S1132F0000AF786000BF0C37BD465DF8047B7047A6
S1132F1080B483B000AF786000BF0C37BD465DF865
S1132F20047B704780B483B000AF786000BF0C3777
S1132F30BD465DF8047B704770B50D4E0D4D761B94
S1132F40B61006D00024013455F8043B9847A64235
S1132F50F9D1094E094D761B00F0EAF8B61006D0F7
S1132F600024013455F8043B9847A642F9D170BDBA
S1132F70B0310008B0310008B8310008B0310008A1
S1132F80F0B4860743D0541E002A3ED0CAB203468A
S1132F9002E014F1FF3438D303F8012B9D07F8D174
S1132FA0032C2BD9CDB245EA05250F2C45EA05455E
S1132FB016D9A4F110073F0903F1200606EB071602
S1132FC003F1100242E9045542E902551032B242BB
S1132FD0F8D104F00F040137032C03EB07130DD9C8
S1132FE01E462246043A032A46F8045BFAD8221FF6
S1132FF022F003020432134404F003042CB1C9B2D6
S11330001C4403F8011B9C42FBD1F0BC70471446DE
S11330100346C5E7024B13B1024800F005B87047F8
S11330200000000035300008002301461A46184607
S113303000F01EB838B50A4C0A4D641BA4100AD01F
S113304004F18043013B05EB8305013C55F8043949
S11330509847002CF9D1BDE8384000F06FB800BFA4
S1133060BC310008B8310008704700BF704700BF8A
S11330702DE9F8432B4D0646286898460F4691469D
S1133080FFF7F2FF284B1C68D4F84831002B3DD0E1
S11330905A681F2A0DDC02F1010C16BB0232C3F878
S11330A004C0286843F82270FFF7E0FF0020BDE861
S11330B0F8831E4B7BB34FF4C870AFF30080034614
S11330C048B3D4F848210021C0E900214FF0010C95
S11330D0C4F848010A46C0F88811C0F88C11002EC3
S11330E0DCD003EB82010124C1F88890D3F8880175
S11330F094402043022EC3F88801C1F80881CDD141
S1133100D3F88C110C43C3F88C41C7E704F5A673BC
S1133110C4F84831BCE72868FFF7A8FF4FF0FF3038
S1133120C5E700BF50040020A431000800000000DF
S1133130F8B500BFF8BC08BC9E467047F8B500BFA0
S1133140F8BC08BC9E46704749444C45000000004A
S1133150060000006C65645F310000005431000813
S1133160311700080000000000000000800000008B
S11331706C65645F32000000703100084717000876
S113318000000000000000008000000000000000BB
S11331900000000001020304060708090000000003
S11331A00102030428000020C8D0FF7F01000000B2
S11331B0153000082502000801020008AAAAAAAADC
S11331C000200000200000000024024000240240EF
S11331D0000002400024F400100000000100000080
S11331E00000000000000000140300207C03002005
S11331F0E4030020000000000000000000000000C4
S113320000000000000000000000000000000000BA
S113321000000000000000000000000000000000AA
S1133220000000000000000000000000000000009A
S1133230000000000000000000000000000000008A
S1133240000000000000000000000000000000007A
S1133250000000000000000000000000000000006A
S1133260000000000000000000000000000000005A
S1133270000000000000000000000000000000004A
S11332800000000000000000000000000100000039
S1133290000000000E33CDAB34126DE6ECDE050009
S11332A00B0000000000000000000000000000000F
S11332B0000000000000000000000000000000000A
S11332C000000000000000000000000000000000FA
S11332D000000000000000000000000000000000EA
S11332E000000000000000000000000000000000DA
S1133600000000000000000000000000F00D002099
S9030000FC
